:0300000002028871
:0C028800787FE4F6D8FD7581340202CFC7
:0B04C4003F065B4F666D7D077F6F00F9
:1004A100C101C100042841F00000042441F0000012
:0304B10001210026
:10046300E4FDFCC3ED9FEC9E5015E4FBFA0BBB00CF
:0F047300010AEB647C4A70F50DBD00010C80E4BA
:010482002257
:10038C00E53275F00A84F52CE53275F00A8485F0B7
:10039C002DE53475F00A84F52EE53475F00A848564
:1003AC00F02F7590FEE52C9004C493F5807F017EB0
:1003BC00001204637590FDE52D93F5807F01120406
:1003CC00637590FBE52E93F5807F011204637590A5
:0B03DC00F7E52F93F5807F010204631A
:10031400E52124FE603704706EC374019522F52232
:10032400B40109C28CE4F5A0D2A3D2A6E52270548C
:10033400D28CF5A0D2A1D2A6AF2BAE2AAD29AC287F
:100344001201168F34E5342405F5328037C3740165
:100354009523F523B4010CC28CE4F5A0753301F5A3
:1003640034F532E523701DD28CF5A0D2A1D2A6F5C6
:1003740033AF2BAE2AAD29AC281201168F34E534E5
:080384002405F532E4F5212205
:03000B000201A54A
:1001A500C0E0C0F0C083C082C0D075D008758C4C4B
:1001B500758A00D28C0530E5306414600302027D37
:1001C500F5301534D5320DE534B405082000057534
:1001D5003205D200E534700DE532B405082000057E
:1001E500753405D200E532D39405500A2001073055
:1001F5000004C2A1B2A2E534D39405500A30010728
:10020500300004C2A4B2A5200135E5327031E534D1
:10021500702DF5A0D2A4D2A3B201C200FFFE7DA02D
:100225007C40AB2BAA2AA929A82812002512011661
:100235008F34AF27AE26AD25AC241201168F323090
:100245000136E5347032E532702EF5A0D2A1D2A682
:10025500B201C200AF2BAE2AAD29AC281201168F10
:1002650034E4FFFE7DA07C40AB27AA26A925A8245F
:100275001200251201168F32D0D0D082D083D0F053
:03028500D0E03294
:03001B000203E7F6
:1003E700C0E0C0D0758D4C758B000531E531B40A7E
:1003F7000CE533B40107B2A5A2A5B392A2E531B4C7
:10040700140F753100E533B40107B2A5A2A5B39265
:06041700A2D0D0D0E032BB
:0300030002041DD7
:10041D00C0E0C0F0C083C082C0D075D00820B20546
:10042D0012038C80F8752101D0D0D082D083D0F00A
:03043D00D0E032DA
:03001300020440A4
:10044000C0E0C0F0C083C082C0D075D00820B30522
:1004500012038C80F8752102D0D0D082D083D0F0E6
:03046000D0E032B7
:10048300758911758D4CE4F58B758C4CF58A7588DF
:0E0493005075A88F75A0C375322375341E22D4
:0F04B500120483E521600312031412038C80F4F8
:10001E00020182E86480F8E933E83360110460F08D
:10002E00ED33EC337009E8FCE9FDEAFEEBFF220448
:10003E0060DED3EB9FEA9EE99DE8C2E78CF0C2F743
:10004E0095F0400CE8CCF8E9CDF9EACEFAEBCFFB0F
:10005E0012014D85D0F05804700320D5B3E804701A
:10006E00075002B2D502018C92D5EC0460F7E4CCB5
:10007E00C0E0C398F8603B94186008400DD0E0FBD8
:10008E00020164E4FBFAC9FC8028E830E406E4C906
:10009E00FBE4CAFCE830E305E4C9CACBFCE854072C
:1000AE006010F8C3E913F9EA13FAEB13FBEC13FC37
:1000BE00D8F130F52FC3E49CFCEF9BFFEE9AFEEDDA
:1000CE0099FDD0E0FBEF4E4D4C701222DB03020186
:1000DE0089EC2CFCEF33FFEE33FEED33FDED30E714
:1000EE00EB020164EF2BFFEE3AFEED39FDD0E0FBA3
:1000FE0050130BBB000302018CED13FDEE13FEEF4C
:08010E0013FFEC13FC02016475
:10011600EDD2E7CD33EC3392D524814006E4FFFEE1
:10012600FDFC22FCE4CFCECDCC24E0501174FF8040
:10013600EDC3CC13CCCD13CDCE13CECF13CF0470DD
:07014600F030D5DE02019745
:10014D00E9D2E7C933E833F892D5EDD2E7CD33ECF8
:07015D0033FC5002B2D52271
:10016400EC30E7100FBF000C0EBE00080DBD0004FC
:100174000BEB6014A2D5EB13FCED92E7FD2274FFA8
:10018400FCFDFEFF22E480F8A2D574FF13FC7D8001
:03019400E480EF15
:100294000204B5E493A3F8E493A34003F68001F2C7
:1002A40008DFF48029E493A3F85407240CC8C3336B
:1002B400C4540F4420C8834004F456800146F6DF3A
:1002C400E4800B01020408102040809004A1E47E25
:1002D400019360BCA3FF543F30E509541FFEE4932F
:1002E400A360010ECF54C025E060A840B8E493A3F6
:1002F400FAE493A3F8E493A3C8C582C8CAC583CA21
:10030400F0A3C8C582C8CAC583CADFE9DEE780BED8
:0104B4000047
:0E019700C3E49FFFE49EFEE49DFDE49CFC2279
:00000001FF
